{
  "contracts/SCVoting.sol": {
    "SCVoting": {
      "abi": [
        {
          "anonymous": false,
          "inputs": [
            {
              "indexed": true,
              "internalType": "address",
              "name": "voter",
              "type": "address"
            },
            {
              "indexed": false,
              "internalType": "uint8",
              "name": "option",
              "type": "uint8"
            }
          ],
          "name": "Voted",
          "type": "event"
        },
        {
          "inputs": [],
          "name": "getVotes",
          "outputs": [
            {
              "internalType": "uint256",
              "name": "optionA",
              "type": "uint256"
            },
            {
              "internalType": "uint256",
              "name": "optionB",
              "type": "uint256"
            },
            {
              "internalType": "uint256",
              "name": "optionC",
              "type": "uint256"
            }
          ],
          "stateMutability": "view",
          "type": "function"
        },
        {
          "inputs": [
            {
              "internalType": "address",
              "name": "",
              "type": "address"
            }
          ],
          "name": "hasVoted",
          "outputs": [
            {
              "internalType": "bool",
              "name": "",
              "type": "bool"
            }
          ],
          "stateMutability": "view",
          "type": "function"
        },
        {
          "inputs": [
            {
              "internalType": "uint8",
              "name": "option",
              "type": "uint8"
            }
          ],
          "name": "vote",
          "outputs": [],
          "stateMutability": "nonpayable",
          "type": "function"
        },
        {
          "inputs": [
            {
              "internalType": "uint256",
              "name": "",
              "type": "uint256"
            }
          ],
          "name": "votes",
          "outputs": [
            {
              "internalType": "uint256",
              "name": "",
              "type": "uint256"
            }
          ],
          "stateMutability": "view",
          "type": "function"
        }
      ],
      "evm": {
        "bytecode": {
          "linkReferences": {},
          "object": "6080604052348015600f57600080fd5b506106f08061001f6000396000f3fe608060405234801561001057600080fd5b506004361061004c5760003560e01c806309eef43e146100515780630dc96015146100815780635df81330146100a1578063b3f98adc146100d1575b600080fd5b61006b60048036038101906100669190610388565b6100ed565b60405161007891906103d0565b60405180910390f35b61008961010d565b60405161009893929190610404565b60405180910390f35b6100bb60048036038101906100b69190610467565b610161565b6040516100c89190610494565b60405180910390f35b6100eb60048036038101906100e691906104e8565b61017c565b005b60006020528060005260406000206000915054906101000a900460ff1681565b6000806000600160006003811061012757610126610515565b5b01546001806003811061013d5761013c610515565b5b0154600160026003811061015457610153610515565b5b0154925092509250909192565b6001816003811061017157600080fd5b016000915090505481565b60038160ff16106101c2576040517f08c379a00000000000000000000000000000000000000000000000000000000081526004016101b9906105a1565b60405180910390fd5b6000803373ffffffffffffffffffffffffffffffffffffffff1673ffffffffffffffffffffffffffffffffffffffff16815260200190815260200160002060009054906101000a900460ff161561024e576040517f08c379a00000000000000000000000000000000000000000000000000000000081526004016102459061060d565b60405180910390fd5b60016000803373ffffffffffffffffffffffffffffffffffffffff1673ffffffffffffffffffffffffffffffffffffffff16815260200190815260200160002060006101000a81548160ff0219169083151502179055506001808260ff16600381106102bd576102bc610515565b5b0160008282546102cd919061065c565b925050819055503373ffffffffffffffffffffffffffffffffffffffff167f14075e33dffdc00c1fcaf75d0f86d667170be57fb566b12b41b499e5fa53b1258260405161031a919061069f565b60405180910390a250565b600080fd5b600073ffffffffffffffffffffffffffffffffffffffff82169050919050565b60006103558261032a565b9050919050565b6103658161034a565b811461037057600080fd5b50565b6000813590506103828161035c565b92915050565b60006020828403121561039e5761039d610325565b5b60006103ac84828501610373565b91505092915050565b60008115159050919050565b6103ca816103b5565b82525050565b60006020820190506103e560008301846103c1565b92915050565b6000819050919050565b6103fe816103eb565b82525050565b600060608201905061041960008301866103f5565b61042660208301856103f5565b61043360408301846103f5565b949350505050565b610444816103eb565b811461044f57600080fd5b50565b6000813590506104618161043b565b92915050565b60006020828403121561047d5761047c610325565b5b600061048b84828501610452565b91505092915050565b60006020820190506104a960008301846103f5565b92915050565b600060ff82169050919050565b6104c5816104af565b81146104d057600080fd5b50565b6000813590506104e2816104bc565b92915050565b6000602082840312156104fe576104fd610325565b5b600061050c848285016104d3565b91505092915050565b7f4e487b7100000000000000000000000000000000000000000000000000000000600052603260045260246000fd5b600082825260208201905092915050565b7f4f7074696f6e206f7574206f662072616e676500000000000000000000000000600082015250565b600061058b601383610544565b915061059682610555565b602082019050919050565b600060208201905081810360008301526105ba8161057e565b9050919050565b7f416c726561647920766f74656400000000000000000000000000000000000000600082015250565b60006105f7600d83610544565b9150610602826105c1565b602082019050919050565b60006020820190508181036000830152610626816105ea565b9050919050565b7f4e487b7100000000000000000000000000000000000000000000000000000000600052601160045260246000fd5b6000610667826103eb565b9150610672836103eb565b925082820190508082111561068a5761068961062d565b5b92915050565b610699816104af565b82525050565b60006020820190506106b46000830184610690565b9291505056fea264697066735822122003a896710f53ceff8f206a4fdbc076f80fb72905b25681cce6c8838caa0dcea664736f6c634300081b0033",
          "opcodes": "PUSH1 0x80 PUSH1 0x40 MSTORE CALLVALUE DUP1 ISZERO PUSH1 0xF JUMPI PUSH1 0x0 DUP1 REVERT JUMPDEST POP PUSH2 0x6F0 DUP1 PUSH2 0x1F PUSH1 0x0 CODECOPY PUSH1 0x0 RETURN INVALID PUSH1 0x80 PUSH1 0x40 MSTORE CALLVALUE DUP1 ISZERO PUSH2 0x10 JUMPI PUSH1 0x0 DUP1 REVERT JUMPDEST POP PUSH1 0x4 CALLDATASIZE LT PUSH2 0x4C JUMPI PUSH1 0x0 CALLDATALOAD PUSH1 0xE0 SHR DUP1 PUSH4 0x9EEF43E EQ PUSH2 0x51 JUMPI DUP1 PUSH4 0xDC96015 EQ PUSH2 0x81 JUMPI DUP1 PUSH4 0x5DF81330 EQ PUSH2 0xA1 JUMPI DUP1 PUSH4 0xB3F98ADC EQ PUSH2 0xD1 JUMPI JUMPDEST PUSH1 0x0 DUP1 REVERT JUMPDEST PUSH2 0x6B PUSH1 0x4 DUP1 CALLDATASIZE SUB DUP2 ADD SWAP1 PUSH2 0x66 SWAP2 SWAP1 PUSH2 0x388 JUMP JUMPDEST PUSH2 0xED JUMP JUMPDEST PUSH1 0x40 MLOAD PUSH2 0x78 SWAP2 SWAP1 PUSH2 0x3D0 JUMP JUMPDEST PUSH1 0x40 MLOAD DUP1 SWAP2 SUB SWAP1 RETURN JUMPDEST PUSH2 0x89 PUSH2 0x10D JUMP JUMPDEST PUSH1 0x40 MLOAD PUSH2 0x98 SWAP4 SWAP3 SWAP2 SWAP1 PUSH2 0x404 JUMP JUMPDEST PUSH1 0x40 MLOAD DUP1 SWAP2 SUB SWAP1 RETURN JUMPDEST PUSH2 0xBB PUSH1 0x4 DUP1 CALLDATASIZE SUB DUP2 ADD SWAP1 PUSH2 0xB6 SWAP2 SWAP1 PUSH2 0x467 JUMP JUMPDEST PUSH2 0x161 JUMP JUMPDEST PUSH1 0x40 MLOAD PUSH2 0xC8 SWAP2 SWAP1 PUSH2 0x494 JUMP JUMPDEST PUSH1 0x40 MLOAD DUP1 SWAP2 SUB SWAP1 RETURN JUMPDEST PUSH2 0xEB PUSH1 0x4 DUP1 CALLDATASIZE SUB DUP2 ADD SWAP1 PUSH2 0xE6 SWAP2 SWAP1 PUSH2 0x4E8 JUMP JUMPDEST PUSH2 0x17C JUMP JUMPDEST STOP JUMPDEST PUSH1 0x0 PUSH1 0x20 MSTORE DUP1 PUSH1 0x0 MSTORE PUSH1 0x40 PUSH1 0x0 KECCAK256 PUSH1 0x0 SWAP2 POP SLOAD SWAP1 PUSH2 0x100 EXP SWAP1 DIV PUSH1 0xFF AND DUP2 JUMP JUMPDEST PUSH1 0x0 DUP1 PUSH1 0x0 PUSH1 0x1 PUSH1 0x0 PUSH1 0x3 DUP2 LT PUSH2 0x127 JUMPI PUSH2 0x126 PUSH2 0x515 JUMP JUMPDEST JUMPDEST ADD SLOAD PUSH1 0x1 DUP1 PUSH1 0x3 DUP2 LT PUSH2 0x13D JUMPI PUSH2 0x13C PUSH2 0x515 JUMP JUMPDEST JUMPDEST ADD SLOAD PUSH1 0x1 PUSH1 0x2 PUSH1 0x3 DUP2 LT PUSH2 0x154 JUMPI PUSH2 0x153 PUSH2 0x515 JUMP JUMPDEST JUMPDEST ADD SLOAD SWAP3 POP SWAP3 POP SWAP3 POP SWAP1 SWAP2 SWAP3 JUMP JUMPDEST PUSH1 0x1 DUP2 PUSH1 0x3 DUP2 LT PUSH2 0x171 JUMPI PUSH1 0x0 DUP1 REVERT JUMPDEST ADD PUSH1 0x0 SWAP2 POP SWAP1 POP SLOAD DUP2 JUMP JUMPDEST PUSH1 0x3 DUP2 PUSH1 0xFF AND LT PUSH2 0x1C2 JUMPI PUSH1 0x40 MLOAD PUSH32 0x8C379A000000000000000000000000000000000000000000000000000000000 DUP2 MSTORE PUSH1 0x4 ADD PUSH2 0x1B9 SWAP1 PUSH2 0x5A1 JUMP JUMPDEST PUSH1 0x40 MLOAD DUP1 SWAP2 SUB SWAP1 REVERT JUMPDEST PUSH1 0x0 DUP1 CALLER PUSH20 0xFFFFFFFFFFFFFFFFFFFFFFFFFFFFFFFFFFFFFFFF AND PUSH20 0xFFFFFFFFFFFFFFFFFFFFFFFFFFFFFFFFFFFFFFFF AND DUP2 MSTORE PUSH1 0x20 ADD SWAP1 DUP2 MSTORE PUSH1 0x20 ADD PUSH1 0x0 KECCAK256 PUSH1 0x0 SWAP1 SLOAD SWAP1 PUSH2 0x100 EXP SWAP1 DIV PUSH1 0xFF AND ISZERO PUSH2 0x24E JUMPI PUSH1 0x40 MLOAD PUSH32 0x8C379A000000000000000000000000000000000000000000000000000000000 DUP2 MSTORE PUSH1 0x4 ADD PUSH2 0x245 SWAP1 PUSH2 0x60D JUMP JUMPDEST PUSH1 0x40 MLOAD DUP1 SWAP2 SUB SWAP1 REVERT JUMPDEST PUSH1 0x1 PUSH1 0x0 DUP1 CALLER PUSH20 0xFFFFFFFFFFFFFFFFFFFFFFFFFFFFFFFFFFFFFFFF AND PUSH20 0xFFFFFFFFFFFFFFFFFFFFFFFFFFFFFFFFFFFFFFFF AND DUP2 MSTORE PUSH1 0x20 ADD SWAP1 DUP2 MSTORE PUSH1 0x20 ADD PUSH1 0x0 KECCAK256 PUSH1 0x0 PUSH2 0x100 EXP DUP2 SLOAD DUP2 PUSH1 0xFF MUL NOT AND SWAP1 DUP4 ISZERO ISZERO MUL OR SWAP1 SSTORE POP PUSH1 0x1 DUP1 DUP3 PUSH1 0xFF AND PUSH1 0x3 DUP2 LT PUSH2 0x2BD JUMPI PUSH2 0x2BC PUSH2 0x515 JUMP JUMPDEST JUMPDEST ADD PUSH1 0x0 DUP3 DUP3 SLOAD PUSH2 0x2CD SWAP2 SWAP1 PUSH2 0x65C JUMP JUMPDEST SWAP3 POP POP DUP2 SWAP1 SSTORE POP CALLER PUSH20 0xFFFFFFFFFFFFFFFFFFFFFFFFFFFFFFFFFFFFFFFF AND PUSH32 0x14075E33DFFDC00C1FCAF75D0F86D667170BE57FB566B12B41B499E5FA53B125 DUP3 PUSH1 0x40 MLOAD PUSH2 0x31A SWAP2 SWAP1 PUSH2 0x69F JUMP JUMPDEST PUSH1 0x40 MLOAD DUP1 SWAP2 SUB SWAP1 LOG2 POP JUMP JUMPDEST PUSH1 0x0 DUP1 REVERT JUMPDEST PUSH1 0x0 PUSH20 0xFFFFFFFFFFFFFFFFFFFFFFFFFFFFFFFFFFFFFFFF DUP3 AND SWAP1 POP SWAP2 SWAP1 POP JUMP JUMPDEST PUSH1 0x0 PUSH2 0x355 DUP3 PUSH2 0x32A JUMP JUMPDEST SWAP1 POP SWAP2 SWAP1 POP JUMP JUMPDEST PUSH2 0x365 DUP2 PUSH2 0x34A JUMP JUMPDEST DUP2 EQ PUSH2 0x370 JUMPI PUSH1 0x0 DUP1 REVERT JUMPDEST POP JUMP JUMPDEST PUSH1 0x0 DUP2 CALLDATALOAD SWAP1 POP PUSH2 0x382 DUP2 PUSH2 0x35C JUMP JUMPDEST SWAP3 SWAP2 POP POP JUMP JUMPDEST PUSH1 0x0 PUSH1 0x20 DUP3 DUP5 SUB SLT ISZERO PUSH2 0x39E JUMPI PUSH2 0x39D PUSH2 0x325 JUMP JUMPDEST JUMPDEST PUSH1 0x0 PUSH2 0x3AC DUP5 DUP3 DUP6 ADD PUSH2 0x373 JUMP JUMPDEST SWAP2 POP POP SWAP3 SWAP2 POP POP JUMP JUMPDEST PUSH1 0x0 DUP2 ISZERO ISZERO SWAP1 POP SWAP2 SWAP1 POP JUMP JUMPDEST PUSH2 0x3CA DUP2 PUSH2 0x3B5 JUMP JUMPDEST DUP3 MSTORE POP POP JUMP JUMPDEST PUSH1 0x0 PUSH1 0x20 DUP3 ADD SWAP1 POP PUSH2 0x3E5 PUSH1 0x0 DUP4 ADD DUP5 PUSH2 0x3C1 JUMP JUMPDEST SWAP3 SWAP2 POP POP JUMP JUMPDEST PUSH1 0x0 DUP2 SWAP1 POP SWAP2 SWAP1 POP JUMP JUMPDEST PUSH2 0x3FE DUP2 PUSH2 0x3EB JUMP JUMPDEST DUP3 MSTORE POP POP JUMP JUMPDEST PUSH1 0x0 PUSH1 0x60 DUP3 ADD SWAP1 POP PUSH2 0x419 PUSH1 0x0 DUP4 ADD DUP7 PUSH2 0x3F5 JUMP JUMPDEST PUSH2 0x426 PUSH1 0x20 DUP4 ADD DUP6 PUSH2 0x3F5 JUMP JUMPDEST PUSH2 0x433 PUSH1 0x40 DUP4 ADD DUP5 PUSH2 0x3F5 JUMP JUMPDEST SWAP5 SWAP4 POP POP POP POP JUMP JUMPDEST PUSH2 0x444 DUP2 PUSH2 0x3EB JUMP JUMPDEST DUP2 EQ PUSH2 0x44F JUMPI PUSH1 0x0 DUP1 REVERT JUMPDEST POP JUMP JUMPDEST PUSH1 0x0 DUP2 CALLDATALOAD SWAP1 POP PUSH2 0x461 DUP2 PUSH2 0x43B JUMP JUMPDEST SWAP3 SWAP2 POP POP JUMP JUMPDEST PUSH1 0x0 PUSH1 0x20 DUP3 DUP5 SUB SLT ISZERO PUSH2 0x47D JUMPI PUSH2 0x47C PUSH2 0x325 JUMP JUMPDEST JUMPDEST PUSH1 0x0 PUSH2 0x48B DUP5 DUP3 DUP6 ADD PUSH2 0x452 JUMP JUMPDEST SWAP2 POP POP SWAP3 SWAP2 POP POP JUMP JUMPDEST PUSH1 0x0 PUSH1 0x20 DUP3 ADD SWAP1 POP PUSH2 0x4A9 PUSH1 0x0 DUP4 ADD DUP5 PUSH2 0x3F5 JUMP JUMPDEST SWAP3 SWAP2 POP POP JUMP JUMPDEST PUSH1 0x0 PUSH1 0xFF DUP3 AND SWAP1 POP SWAP2 SWAP1 POP JUMP JUMPDEST PUSH2 0x4C5 DUP2 PUSH2 0x4AF JUMP JUMPDEST DUP2 EQ PUSH2 0x4D0 JUMPI PUSH1 0x0 DUP1 REVERT JUMPDEST POP JUMP JUMPDEST PUSH1 0x0 DUP2 CALLDATALOAD SWAP1 POP PUSH2 0x4E2 DUP2 PUSH2 0x4BC JUMP JUMPDEST SWAP3 SWAP2 POP POP JUMP JUMPDEST PUSH1 0x0 PUSH1 0x20 DUP3 DUP5 SUB SLT ISZERO PUSH2 0x4FE JUMPI PUSH2 0x4FD PUSH2 0x325 JUMP JUMPDEST JUMPDEST PUSH1 0x0 PUSH2 0x50C DUP5 DUP3 DUP6 ADD PUSH2 0x4D3 JUMP JUMPDEST SWAP2 POP POP SWAP3 SWAP2 POP POP JUMP JUMPDEST PUSH32 0x4E487B7100000000000000000000000000000000000000000000000000000000 PUSH1 0x0 MSTORE PUSH1 0x32 PUSH1 0x4 MSTORE PUSH1 0x24 PUSH1 0x0 REVERT JUMPDEST PUSH1 0x0 DUP3 DUP3 MSTORE PUSH1 0x20 DUP3 ADD SWAP1 POP SWAP3 SWAP2 POP POP JUMP JUMPDEST PUSH32 0x4F7074696F6E206F7574206F662072616E676500000000000000000000000000 PUSH1 0x0 DUP3 ADD MSTORE POP JUMP JUMPDEST PUSH1 0x0 PUSH2 0x58B PUSH1 0x13 DUP4 PUSH2 0x544 JUMP JUMPDEST SWAP2 POP PUSH2 0x596 DUP3 PUSH2 0x555 JUMP JUMPDEST PUSH1 0x20 DUP3 ADD SWAP1 POP SWAP2 SWAP1 POP JUMP JUMPDEST PUSH1 0x0 PUSH1 0x20 DUP3 ADD SWAP1 POP DUP2 DUP2 SUB PUSH1 0x0 DUP4 ADD MSTORE PUSH2 0x5BA DUP2 PUSH2 0x57E JUMP JUMPDEST SWAP1 POP SWAP2 SWAP1 POP JUMP JUMPDEST PUSH32 0x416C726561647920766F74656400000000000000000000000000000000000000 PUSH1 0x0 DUP3 ADD MSTORE POP JUMP JUMPDEST PUSH1 0x0 PUSH2 0x5F7 PUSH1 0xD DUP4 PUSH2 0x544 JUMP JUMPDEST SWAP2 POP PUSH2 0x602 DUP3 PUSH2 0x5C1 JUMP JUMPDEST PUSH1 0x20 DUP3 ADD SWAP1 POP SWAP2 SWAP1 POP JUMP JUMPDEST PUSH1 0x0 PUSH1 0x20 DUP3 ADD SWAP1 POP DUP2 DUP2 SUB PUSH1 0x0 DUP4 ADD MSTORE PUSH2 0x626 DUP2 PUSH2 0x5EA JUMP JUMPDEST SWAP1 POP SWAP2 SWAP1 POP JUMP JUMPDEST PUSH32 0x4E487B7100000000000000000000000000000000000000000000000000000000 PUSH1 0x0 MSTORE PUSH1 0x11 PUSH1 0x4 MSTORE PUSH1 0x24 PUSH1 0x0 REVERT JUMPDEST PUSH1 0x0 PUSH2 0x667 DUP3 PUSH2 0x3EB JUMP JUMPDEST SWAP2 POP PUSH2 0x672 DUP4 PUSH2 0x3EB JUMP JUMPDEST SWAP3 POP DUP3 DUP3 ADD SWAP1 POP DUP1 DUP3 GT ISZERO PUSH2 0x68A JUMPI PUSH2 0x689 PUSH2 0x62D JUMP JUMPDEST JUMPDEST SWAP3 SWAP2 POP POP JUMP JUMPDEST PUSH2 0x699 DUP2 PUSH2 0x4AF JUMP JUMPDEST DUP3 MSTORE POP POP JUMP JUMPDEST PUSH1 0x0 PUSH1 0x20 DUP3 ADD SWAP1 POP PUSH2 0x6B4 PUSH1 0x0 DUP4 ADD DUP5 PUSH2 0x690 JUMP JUMPDEST SWAP3 SWAP2 POP POP JUMP INVALID LOG2 PUSH5 0x6970667358 0x22 SLT KECCAK256 SUB 0xA8 SWAP7 PUSH18 0xF53CEFF8F206A4FDBC076F80FB72905B256 DUP2 0xCC 0xE6 0xC8 DUP4 DUP13 0xAA 0xD 0xCE 0xA6 PUSH5 0x736F6C6343 STOP ADDMOD SHL STOP CALLER "
        },
        "methodIdentifiers": {
          "getVotes()": "0dc96015",
          "hasVoted(address)": "09eef43e",
          "vote(uint8)": "b3f98adc",
          "votes(uint256)": "5df81330"
        }
      }
    }
  }
}